{
  "_format": "hh-sol-artifact-1",
  "contractName": "CheersBoard",
  "sourceName": "contracts/CheersBoard.sol",
  "abi": [
    {
      "anonymous": false,
      "inputs": [
        {
          "indexed": true,
          "internalType": "uint256",
          "name": "wallId",
          "type": "uint256"
        },
        {
          "indexed": true,
          "internalType": "uint256",
          "name": "postId",
          "type": "uint256"
        },
        {
          "indexed": true,
          "internalType": "address",
          "name": "author",
          "type": "address"
        },
        {
          "indexed": false,
          "internalType": "string",
          "name": "title",
          "type": "string"
        }
      ],
      "name": "PostCreated",
      "type": "event"
    },
    {
      "anonymous": false,
      "inputs": [
        {
          "indexed": true,
          "internalType": "uint256",
          "name": "wallId",
          "type": "uint256"
        },
        {
          "indexed": true,
          "internalType": "uint256",
          "name": "postId",
          "type": "uint256"
        },
        {
          "indexed": true,
          "internalType": "address",
          "name": "from",
          "type": "address"
        }
      ],
      "name": "PostLiked",
      "type": "event"
    },
    {
      "anonymous": false,
      "inputs": [
        {
          "indexed": true,
          "internalType": "uint256",
          "name": "wallId",
          "type": "uint256"
        },
        {
          "indexed": true,
          "internalType": "uint256",
          "name": "postId",
          "type": "uint256"
        },
        {
          "indexed": false,
          "internalType": "address",
          "name": "moderator",
          "type": "address"
        }
      ],
      "name": "PostRemoved",
      "type": "event"
    },
    {
      "anonymous": false,
      "inputs": [
        {
          "indexed": true,
          "internalType": "uint256",
          "name": "wallId",
          "type": "uint256"
        },
        {
          "indexed": true,
          "internalType": "address",
          "name": "organizer",
          "type": "address"
        },
        {
          "indexed": false,
          "internalType": "string",
          "name": "title",
          "type": "string"
        },
        {
          "indexed": false,
          "internalType": "string",
          "name": "coverCID",
          "type": "string"
        }
      ],
      "name": "WallCreated",
      "type": "event"
    },
    {
      "inputs": [
        {
          "internalType": "string",
          "name": "title",
          "type": "string"
        },
        {
          "internalType": "string",
          "name": "description",
          "type": "string"
        },
        {
          "internalType": "string",
          "name": "coverCID",
          "type": "string"
        },
        {
          "internalType": "uint256",
          "name": "startTime",
          "type": "uint256"
        },
        {
          "internalType": "uint256",
          "name": "endTime",
          "type": "uint256"
        },
        {
          "internalType": "bool",
          "name": "allowAnonymous",
          "type": "bool"
        },
        {
          "internalType": "bool",
          "name": "allowMedia",
          "type": "bool"
        },
        {
          "internalType": "uint256",
          "name": "postFee",
          "type": "uint256"
        },
        {
          "internalType": "bool",
          "name": "autoMint",
          "type": "bool"
        }
      ],
      "name": "createWall",
      "outputs": [
        {
          "internalType": "uint256",
          "name": "wallId",
          "type": "uint256"
        }
      ],
      "stateMutability": "nonpayable",
      "type": "function"
    },
    {
      "inputs": [
        {
          "internalType": "uint256",
          "name": "wallId",
          "type": "uint256"
        },
        {
          "internalType": "uint256",
          "name": "postId",
          "type": "uint256"
        }
      ],
      "name": "getEncryptedLikeCount",
      "outputs": [
        {
          "internalType": "euint32",
          "name": "",
          "type": "bytes32"
        }
      ],
      "stateMutability": "view",
      "type": "function"
    },
    {
      "inputs": [
        {
          "internalType": "uint256",
          "name": "postId",
          "type": "uint256"
        }
      ],
      "name": "getPost",
      "outputs": [
        {
          "components": [
            {
              "internalType": "uint256",
              "name": "postId",
              "type": "uint256"
            },
            {
              "internalType": "uint256",
              "name": "wallId",
              "type": "uint256"
            },
            {
              "internalType": "address",
              "name": "author",
              "type": "address"
            },
            {
              "internalType": "string",
              "name": "title",
              "type": "string"
            },
            {
              "internalType": "string",
              "name": "content",
              "type": "string"
            },
            {
              "internalType": "string",
              "name": "mediaCID",
              "type": "string"
            },
            {
              "internalType": "uint256",
              "name": "timestamp",
              "type": "uint256"
            },
            {
              "internalType": "bool",
              "name": "removed",
              "type": "bool"
            },
            {
              "internalType": "euint32",
              "name": "encryptedLikeCount",
              "type": "bytes32"
            }
          ],
          "internalType": "struct CheersBoard.Post",
          "name": "",
          "type": "tuple"
        }
      ],
      "stateMutability": "view",
      "type": "function"
    },
    {
      "inputs": [
        {
          "internalType": "uint256",
          "name": "wallId",
          "type": "uint256"
        }
      ],
      "name": "getPostsByWall",
      "outputs": [
        {
          "internalType": "uint256[]",
          "name": "",
          "type": "uint256[]"
        }
      ],
      "stateMutability": "view",
      "type": "function"
    },
    {
      "inputs": [
        {
          "internalType": "uint256",
          "name": "wallId",
          "type": "uint256"
        }
      ],
      "name": "getWall",
      "outputs": [
        {
          "components": [
            {
              "internalType": "uint256",
              "name": "wallId",
              "type": "uint256"
            },
            {
              "internalType": "address",
              "name": "organizer",
              "type": "address"
            },
            {
              "internalType": "string",
              "name": "title",
              "type": "string"
            },
            {
              "internalType": "string",
              "name": "description",
              "type": "string"
            },
            {
              "internalType": "string",
              "name": "coverCID",
              "type": "string"
            },
            {
              "internalType": "uint256",
              "name": "startTime",
              "type": "uint256"
            },
            {
              "internalType": "uint256",
              "name": "endTime",
              "type": "uint256"
            },
            {
              "internalType": "bool",
              "name": "allowAnonymous",
              "type": "bool"
            },
            {
              "internalType": "bool",
              "name": "allowMedia",
              "type": "bool"
            },
            {
              "internalType": "uint256",
              "name": "postFee",
              "type": "uint256"
            },
            {
              "internalType": "bool",
              "name": "autoMint",
              "type": "bool"
            }
          ],
          "internalType": "struct CheersBoard.Wall",
          "name": "",
          "type": "tuple"
        }
      ],
      "stateMutability": "view",
      "type": "function"
    },
    {
      "inputs": [
        {
          "internalType": "uint256",
          "name": "wallId",
          "type": "uint256"
        },
        {
          "internalType": "uint256",
          "name": "postId",
          "type": "uint256"
        },
        {
          "internalType": "externalEuint32",
          "name": "encryptedIncrement",
          "type": "bytes32"
        },
        {
          "internalType": "bytes",
          "name": "inputProof",
          "type": "bytes"
        }
      ],
      "name": "likePost",
      "outputs": [],
      "stateMutability": "nonpayable",
      "type": "function"
    },
    {
      "inputs": [],
      "name": "nextPostId",
      "outputs": [
        {
          "internalType": "uint256",
          "name": "",
          "type": "uint256"
        }
      ],
      "stateMutability": "view",
      "type": "function"
    },
    {
      "inputs": [],
      "name": "nextWallId",
      "outputs": [
        {
          "internalType": "uint256",
          "name": "",
          "type": "uint256"
        }
      ],
      "stateMutability": "view",
      "type": "function"
    },
    {
      "inputs": [
        {
          "internalType": "uint256",
          "name": "wallId",
          "type": "uint256"
        },
        {
          "internalType": "string",
          "name": "title",
          "type": "string"
        },
        {
          "internalType": "string",
          "name": "content",
          "type": "string"
        },
        {
          "internalType": "string",
          "name": "mediaCID",
          "type": "string"
        }
      ],
      "name": "postBlessing",
      "outputs": [
        {
          "internalType": "uint256",
          "name": "postId",
          "type": "uint256"
        }
      ],
      "stateMutability": "payable",
      "type": "function"
    },
    {
      "inputs": [
        {
          "internalType": "uint256",
          "name": "",
          "type": "uint256"
        }
      ],
      "name": "posts",
      "outputs": [
        {
          "internalType": "uint256",
          "name": "postId",
          "type": "uint256"
        },
        {
          "internalType": "uint256",
          "name": "wallId",
          "type": "uint256"
        },
        {
          "internalType": "address",
          "name": "author",
          "type": "address"
        },
        {
          "internalType": "string",
          "name": "title",
          "type": "string"
        },
        {
          "internalType": "string",
          "name": "content",
          "type": "string"
        },
        {
          "internalType": "string",
          "name": "mediaCID",
          "type": "string"
        },
        {
          "internalType": "uint256",
          "name": "timestamp",
          "type": "uint256"
        },
        {
          "internalType": "bool",
          "name": "removed",
          "type": "bool"
        },
        {
          "internalType": "euint32",
          "name": "encryptedLikeCount",
          "type": "bytes32"
        }
      ],
      "stateMutability": "view",
      "type": "function"
    },
    {
      "inputs": [],
      "name": "protocolId",
      "outputs": [
        {
          "internalType": "uint256",
          "name": "",
          "type": "uint256"
        }
      ],
      "stateMutability": "pure",
      "type": "function"
    },
    {
      "inputs": [
        {
          "internalType": "uint256",
          "name": "wallId",
          "type": "uint256"
        },
        {
          "internalType": "uint256",
          "name": "postId",
          "type": "uint256"
        }
      ],
      "name": "removePost",
      "outputs": [],
      "stateMutability": "nonpayable",
      "type": "function"
    },
    {
      "inputs": [
        {
          "internalType": "uint256",
          "name": "",
          "type": "uint256"
        },
        {
          "internalType": "uint256",
          "name": "",
          "type": "uint256"
        }
      ],
      "name": "wallToPosts",
      "outputs": [
        {
          "internalType": "uint256",
          "name": "",
          "type": "uint256"
        }
      ],
      "stateMutability": "view",
      "type": "function"
    },
    {
      "inputs": [
        {
          "internalType": "uint256",
          "name": "",
          "type": "uint256"
        }
      ],
      "name": "walls",
      "outputs": [
        {
          "internalType": "uint256",
          "name": "wallId",
          "type": "uint256"
        },
        {
          "internalType": "address",
          "name": "organizer",
          "type": "address"
        },
        {
          "internalType": "string",
          "name": "title",
          "type": "string"
        },
        {
          "internalType": "string",
          "name": "description",
          "type": "string"
        },
        {
          "internalType": "string",
          "name": "coverCID",
          "type": "string"
        },
        {
          "internalType": "uint256",
          "name": "startTime",
          "type": "uint256"
        },
        {
          "internalType": "uint256",
          "name": "endTime",
          "type": "uint256"
        },
        {
          "internalType": "bool",
          "name": "allowAnonymous",
          "type": "bool"
        },
        {
          "internalType": "bool",
          "name": "allowMedia",
          "type": "bool"
        },
        {
          "internalType": "uint256",
          "name": "postFee",
          "type": "uint256"
        },
        {
          "internalType": "bool",
          "name": "autoMint",
          "type": "bool"
        }
      ],
      "stateMutability": "view",
      "type": "function"
    }
  ],
  "bytecode": "0x608060405260016000556001805534801561001957600080fd5b506101956100b9604080516080810182526000808252602082018190529181018290526060810191909152506040805160808101825273687820221192c5b662b25367f70076a37bc79b6c815273848b0066793bcc60346da1f49049357399b8d595602082015273a02cda4ca3a71d7c46997716f4283aa851c2881291810191909152731364cbbf2cdf5032c47d8226a6f6fbd2afcdacac606082015290565b80517f9e7b61f58c47dc699ac88507c4f5bb9f121c03808c5676a8078fe583e464970080546001600160a01b03199081166001600160a01b039384161790915560208301517f9e7b61f58c47dc699ac88507c4f5bb9f121c03808c5676a8078fe583e46497018054831691841691909117905560408301517f9e7b61f58c47dc699ac88507c4f5bb9f121c03808c5676a8078fe583e46497028054831691841691909117905560608301517f9e7b61f58c47dc699ac88507c4f5bb9f121c03808c5676a8078fe583e46497038054909216921691909117905550565b6121bb806101a46000396000f3fe6080604052600436106100dd5760003560e01c806389e4762f1161007f578063d46379c211610059578063d46379c214610260578063da1f12ab14610280578063df01141914610295578063ff91e489146102b557600080fd5b806389e4762f1461020d578063c4fab73d1461022d578063c90b1f5d1461024057600080fd5b806340731c24116100bb57806340731c2414610171578063550a3dba1461019e5780635c09bd98146101d55780636bc9f269146101eb57600080fd5b80630b1e7f83146100e25780631206325b146101205780631e41e22314610144575b600080fd5b3480156100ee57600080fd5b506101026100fd36600461181e565b6102e2565b6040516101179998979695949392919061187d565b60405180910390f35b34801561012c57600080fd5b5061013660005481565b604051908152602001610117565b34801561015057600080fd5b5061016461015f36600461181e565b6104d4565b60405161011791906118f5565b34801561017d57600080fd5b5061019161018c36600461181e565b610536565b6040516101179190611938565b3480156101aa57600080fd5b506101be6101b936600461181e565b6107ba565b6040516101179b9a999897969594939291906119f8565b3480156101e157600080fd5b5061013660015481565b3480156101f757600080fd5b5061020b610206366004611a8f565b6109ba565b005b34801561021957600080fd5b50610136610228366004611b0f565b610ade565b61013661023b366004611c06565b610dd0565b34801561024c57600080fd5b5061020b61025b366004611cb6565b610ff0565b34801561026c57600080fd5b5061013661027b366004611a8f565b611182565b34801561028c57600080fd5b50612711610136565b3480156102a157600080fd5b506101366102b0366004611a8f565b6111b3565b3480156102c157600080fd5b506102d56102d036600461181e565b6111ef565b6040516101179190611d17565b60036020819052600091825260409091208054600182015460028301549383018054929491936001600160a01b039092169261031d90611dfa565b80601f016020809104026020016040519081016040528092919081815260200182805461034990611dfa565b80156103965780601f1061036b57610100808354040283529160200191610396565b820191906000526020600020905b81548152906001019060200180831161037957829003601f168201915b5050505050908060040180546103ab90611dfa565b80601f01602080910402602001604051908101604052809291908181526020018280546103d790611dfa565b80156104245780601f106103f957610100808354040283529160200191610424565b820191906000526020600020905b81548152906001019060200180831161040757829003601f168201915b50505050509080600501805461043990611dfa565b80601f016020809104026020016040519081016040528092919081815260200182805461046590611dfa565b80156104b25780601f10610487576101008083540402835291602001916104b2565b820191906000526020600020905b81548152906001019060200180831161049557829003601f168201915b50505050600683015460078401546008909401549293909260ff909116915089565b60008181526004602090815260409182902080548351818402810184019094528084526060939283018282801561052a57602002820191906000526020600020905b815481526020019060010190808311610516575b50505050509050919050565b610593604051806101200160405280600081526020016000815260200160006001600160a01b0316815260200160608152602001606081526020016060815260200160008152602001600015158152602001600080191681525090565b6000828152600360208181526040928390208351610120810185528154815260018201549281019290925260028101546001600160a01b03169382019390935290820180549192916060840191906105ea90611dfa565b80601f016020809104026020016040519081016040528092919081815260200182805461061690611dfa565b80156106635780601f1061063857610100808354040283529160200191610663565b820191906000526020600020905b81548152906001019060200180831161064657829003601f168201915b5050505050815260200160048201805461067c90611dfa565b80601f01602080910402602001604051908101604052809291908181526020018280546106a890611dfa565b80156106f55780601f106106ca576101008083540402835291602001916106f5565b820191906000526020600020905b8154815290600101906020018083116106d857829003601f168201915b5050505050815260200160058201805461070e90611dfa565b80601f016020809104026020016040519081016040528092919081815260200182805461073a90611dfa565b80156107875780601f1061075c57610100808354040283529160200191610787565b820191906000526020600020905b81548152906001019060200180831161076a57829003601f168201915b505050918352505060068201546020820152600782015460ff161515604082015260089091015460609091015292915050565b600260208190526000918252604090912080546001820154928201805491936001600160a01b031692916107ed90611dfa565b80601f016020809104026020016040519081016040528092919081815260200182805461081990611dfa565b80156108665780601f1061083b57610100808354040283529160200191610866565b820191906000526020600020905b81548152906001019060200180831161084957829003601f168201915b50505050509080600301805461087b90611dfa565b80601f01602080910402602001604051908101604052809291908181526020018280546108a790611dfa565b80156108f45780601f106108c9576101008083540402835291602001916108f4565b820191906000526020600020905b8154815290600101906020018083116108d757829003601f168201915b50505050509080600401805461090990611dfa565b80601f016020809104026020016040519081016040528092919081815260200182805461093590611dfa565b80156109825780601f1061095757610100808354040283529160200191610982565b820191906000526020600020905b81548152906001019060200180831161096557829003601f168201915b5050505060058301546006840154600785015460088601546009909601549495929491935060ff80821693610100909204811692168b565b60008281526002602052604090206001015482906001600160a01b03163314610a1a5760405162461bcd60e51b815260206004820152600d60248201526c2737ba1037b933b0b734bd32b960991b60448201526064015b60405180910390fd5b600082815260036020526040902060018101548414610a4b5760405162461bcd60e51b8152600401610a1190611e34565b600781015460ff1615610a925760405162461bcd60e51b815260206004820152600f60248201526e105b1c9958591e481c995b5bdd9959608a1b6044820152606401610a11565b60078101805460ff19166001179055604051338152839085907fa8b960686f4ee13790da81adfe7f94d9c2adb2e410335e59370451d632bd19699060200160405180910390a350505050565b60008b610b1d5760405162461bcd60e51b815260206004820152600d60248201526c496e76616c6964207469746c6560981b6044820152606401610a11565b851580610b2a5750868610155b610b6b5760405162461bcd60e51b8152602060048201526012602482015271496e76616c69642074696d652072616e676560701b6044820152606401610a11565b600080549080610b7a83611e5a565b919050559050604051806101600160405280828152602001336001600160a01b031681526020018e8e8080601f016020809104026020016040519081016040528093929190818152602001838380828437600092019190915250505090825250604080516020601f8f018190048102820181019092528d815291810191908e908e9081908401838280828437600092019190915250505090825250604080516020601f8d018190048102820181019092528b815291810191908c908c9081908401838280828437600092018290525093855250505060208083018b905260408084018b90528915156060850152881515608085015260a0840188905286151560c09094019390935284825260028082529183902084518155908401516001820180546001600160a01b0319166001600160a01b039092169190911790559183015190820190610cc99082611ee6565b5060608201516003820190610cde9082611ee6565b5060808201516004820190610cf39082611ee6565b5060a0820151816005015560c0820151816006015560e08201518160070160006101000a81548160ff0219169083151502179055506101008201518160070160016101000a81548160ff02191690831515021790555061012082015181600801556101408201518160090160006101000a81548160ff021916908315150217905550905050336001600160a01b0316817f091471d21c9bda8e4e543fd52bb09e2f361a974657f53a00cef1272ea9714f648f8f8d8d604051610db89493929190611fce565b60405180910390a39c9b505050505050505050505050565b600087815260026020526040812060018101546001600160a01b0316610e295760405162461bcd60e51b815260206004820152600e60248201526d15d85b1b081b9bdd08199bdd5b9960921b6044820152606401610a11565b86610e665760405162461bcd60e51b815260206004820152600d60248201526c496e76616c6964207469746c6560981b6044820152606401610a11565b84610ea55760405162461bcd60e51b815260206004820152600f60248201526e125b9d985b1a590818dbdb9d195b9d608a1b6044820152606401610a11565b600881015415610efb578060080154341015610efb5760405162461bcd60e51b8152602060048201526015602482015274496e73756666696369656e7420706f73742066656560581b6044820152606401610a11565b60018054906000610f0b83611e5a565b909155506000818152600360208190526040909120828155600181018c90556002810180546001600160a01b031916331790559193508101610f4e898b83612000565b5060048101610f5e878983612000565b5060058101610f6e858783612000565b5042600682015560078101805460ff1916905560008a81526004602090815260408083208054600181018255908452919092200184905551339084908c907f61a7a6dea2aa2bb38e8d1303241c981b5ba162215611d715da3efa50195c177d90610fdb908e908e906120c0565b60405180910390a45050979650505050505050565b600085815260026020526040902060018101546001600160a01b03166110495760405162461bcd60e51b815260206004820152600e60248201526d15d85b1b081b9bdd08199bdd5b9960921b6044820152606401610a11565b60008581526003602052604090206001810154871461107a5760405162461bcd60e51b8152600401610a1190611e34565b600781015460ff16156110b95760405162461bcd60e51b815260206004820152600760248201526614995b5bdd995960ca1b6044820152606401610a11565b60006110fb8686868080601f01602080910402602001604051908101604052809392919081815260200183838082843760009201919091525061149c92505050565b905061110b8260080154826114b1565b6008830181905561111b906114e3565b506008820154600283015461113991906001600160a01b03166114f3565b506111488260080154336114f3565b50604051339088908a907f17a2245c5de81babb166ae4bab097a92cb2e683ed8e11a36d0bccfb32b64a51290600090a45050505050505050565b6004602052816000526040600020818154811061119e57600080fd5b90600052602060002001600091509150505481565b6000818152600360205260408120600181015484146111e45760405162461bcd60e51b8152600401610a1190611e34565b600801549392505050565b61125b6040518061016001604052806000815260200160006001600160a01b031681526020016060815260200160608152602001606081526020016000815260200160008152602001600015158152602001600015158152602001600081526020016000151581525090565b6000828152600260208181526040928390208351610160810185528154815260018201546001600160a01b031692810192909252918201805491938401916112a290611dfa565b80601f01602080910402602001604051908101604052809291908181526020018280546112ce90611dfa565b801561131b5780601f106112f05761010080835404028352916020019161131b565b820191906000526020600020905b8154815290600101906020018083116112fe57829003601f168201915b5050505050815260200160038201805461133490611dfa565b80601f016020809104026020016040519081016040528092919081815260200182805461136090611dfa565b80156113ad5780601f10611382576101008083540402835291602001916113ad565b820191906000526020600020905b81548152906001019060200180831161139057829003601f168201915b505050505081526020016004820180546113c690611dfa565b80601f01602080910402602001604051908101604052809291908181526020018280546113f290611dfa565b801561143f5780601f106114145761010080835404028352916020019161143f565b820191906000526020600020905b81548152906001019060200180831161142257829003601f168201915b50505091835250506005820154602082015260068201546040820152600782015460ff80821615156060840152610100909104811615156080830152600883015460a0830152600990920154909116151560c09091015292915050565b60006114aa83836004611506565b9392505050565b6000826114c5576114c2600061161d565b92505b816114d7576114d4600061161d565b91505b6114aa83836000611636565b60006114ef82306116f2565b5090565b60006114ff83836116f2565b5090919050565b7f9e7b61f58c47dc699ac88507c4f5bb9f121c03808c5676a8078fe583e46497015460405163196d0b9b60e01b8152600091600080516020612166833981519152916001600160a01b039091169063196d0b9b9061156e9088903390899089906004016120f6565b6020604051808303816000875af115801561158d573d6000803e3d6000fd5b505050506040513d601f19601f820116820180604052508101906115b19190612138565b8154604051630f8e573b60e21b8152600481018390523360248201529193506001600160a01b031690633e395cec90604401600060405180830381600087803b1580156115fd57600080fd5b505af1158015611611573d6000803e3d6000fd5b50505050509392505050565b60006116308263ffffffff16600461176f565b92915050565b600080821561164a5750600160f81b61164e565b5060005b6000600080516020612166833981519152600181015460405163022f65e760e31b815260048101899052602481018890526001600160f81b0319851660448201529192506001600160a01b03169063117b2f38906064016020604051808303816000875af11580156116c4573d6000803e3d6000fd5b505050506040513d601f19601f820116820180604052508101906116e89190612138565b9695505050505050565b60006000805160206121668339815191528054604051635ca4b5b160e11b8152600481018690526001600160a01b03858116602483015292935091169063b9496b6290604401600060405180830381600087803b15801561175257600080fd5b505af1158015611766573d6000803e3d6000fd5b50505050505050565b7f9e7b61f58c47dc699ac88507c4f5bb9f121c03808c5676a8078fe583e464970154604051639cd07acb60e01b8152600091600080516020612166833981519152916001600160a01b0390911690639cd07acb906117d39087908790600401612151565b6020604051808303816000875af11580156117f2573d6000803e3d6000fd5b505050506040513d601f19601f820116820180604052508101906118169190612138565b949350505050565b60006020828403121561183057600080fd5b5035919050565b6000815180845260005b8181101561185d57602081850181015186830182015201611841565b506000602082860101526020601f19601f83011685010191505092915050565b89815288602082015260018060a01b0388166040820152610120606082015260006118ac610120830189611837565b82810360808401526118be8189611837565b905082810360a08401526118d28188611837565b60c0840196909652505091151560e0830152610100909101529695505050505050565b602080825282518282018190526000918401906040840190835b8181101561192d57835183526020938401939092019160010161190f565b509095945050505050565b6020815281516020820152602082015160408201526000604083015161196960608401826001600160a01b03169052565b5060608301516101206080840152611985610140840182611837565b90506080840151601f198483030160a08501526119a28282611837565b91505060a0840151601f198483030160c08501526119c08282611837565b91505060c084015160e084015260e08401516119e161010085018215159052565b506101008401516101208401528091505092915050565b8b81526001600160a01b038b16602082015261016060408201819052600090611a239083018c611837565b8281036060840152611a35818c611837565b90508281036080840152611a49818b611837565b9150508760a08301528660c083015285151560e083015284151561010083015283610120830152611a7f61014083018415159052565b9c9b505050505050505050505050565b60008060408385031215611aa257600080fd5b50508035926020909101359150565b60008083601f840112611ac357600080fd5b50813567ffffffffffffffff811115611adb57600080fd5b602083019150836020828501011115611af357600080fd5b9250929050565b80358015158114611b0a57600080fd5b919050565b6000806000806000806000806000806000806101208d8f031215611b3257600080fd5b67ffffffffffffffff8d351115611b4857600080fd5b611b558e8e358f01611ab1565b909c509a5067ffffffffffffffff60208e01351115611b7357600080fd5b611b838e60208f01358f01611ab1565b909a50985067ffffffffffffffff60408e01351115611ba157600080fd5b611bb18e60408f01358f01611ab1565b909850965060608d0135955060808d01359450611bd060a08e01611afa565b9350611bde60c08e01611afa565b925060e08d01359150611bf46101008e01611afa565b90509295989b509295989b509295989b565b60008060008060008060006080888a031215611c2157600080fd5b87359650602088013567ffffffffffffffff811115611c3f57600080fd5b611c4b8a828b01611ab1565b909750955050604088013567ffffffffffffffff811115611c6b57600080fd5b611c778a828b01611ab1565b909550935050606088013567ffffffffffffffff811115611c9757600080fd5b611ca38a828b01611ab1565b989b979a50959850939692959293505050565b600080600080600060808688031215611cce57600080fd5b853594506020860135935060408601359250606086013567ffffffffffffffff811115611cfa57600080fd5b611d0688828901611ab1565b969995985093965092949392505050565b602081528151602082015260006020830151611d3e60408401826001600160a01b03169052565b5060408301516101606060840152611d5a610180840182611837565b90506060840151601f19848303016080850152611d778282611837565b9150506080840151601f198483030160a0850152611d958282611837565b91505060a084015160c084015260c084015160e084015260e0840151611dc061010085018215159052565b5061010084015180151561012085015250610120840151610140840152610140840151611df261016085018215159052565b509392505050565b600181811c90821680611e0e57607f821691505b602082108103611e2e57634e487b7160e01b600052602260045260246000fd5b50919050565b6020808252600c908201526b125b9d985b1a59081c1bdcdd60a21b604082015260600190565b600060018201611e7a57634e487b7160e01b600052601160045260246000fd5b5060010190565b634e487b7160e01b600052604160045260246000fd5b601f821115611ee157806000526020600020601f840160051c81016020851015611ebe5750805b601f840160051c820191505b81811015611ede5760008155600101611eca565b50505b505050565b815167ffffffffffffffff811115611f0057611f00611e81565b611f1481611f0e8454611dfa565b84611e97565b6020601f821160018114611f485760008315611f305750848201515b600019600385901b1c1916600184901b178455611ede565b600084815260208120601f198516915b82811015611f785787850151825560209485019460019092019101611f58565b5084821015611f965786840151600019600387901b60f8161c191681555b50505050600190811b01905550565b81835281816020850137506000828201602090810191909152601f909101601f19169091010190565b604081526000611fe2604083018688611fa5565b8281036020840152611ff5818587611fa5565b979650505050505050565b67ffffffffffffffff83111561201857612018611e81565b61202c836120268354611dfa565b83611e97565b6000601f84116001811461206057600085156120485750838201355b600019600387901b1c1916600186901b178355611ede565b600083815260209020601f19861690835b828110156120915786850135825560209485019460019092019101612071565b50868210156120ae5760001960f88860031b161c19848701351681555b505060018560011b0183555050505050565b602081526000611816602083018486611fa5565b605481106120f257634e487b7160e01b600052602160045260246000fd5b9052565b8481526001600160a01b038416602082015260806040820181905260009061212090830185611837565b905061212f60608301846120d4565b95945050505050565b60006020828403121561214a57600080fd5b5051919050565b828152604081016114aa60208301846120d456fe9e7b61f58c47dc699ac88507c4f5bb9f121c03808c5676a8078fe583e4649700a26469706673582212206ecbf2828b04da4c605ec057e26aa3b682d37b67bf482cb07e41ba27ef03d1f564736f6c634300081b0033",
  "linkReferences": {},
  "deployedLinkReferences": {}
}